:03000000020944AE
:0C094400787FE4F6D8FD75812902098B4C
:1009FD001416004000F90024003000190012000206
:060A0D0000F800000010DB
:0D09D00025E02416F808E6F5A07F017E0062
:1009DD00E4FDFCD3ED9FEC9E5015E4FBFA0BBB0040
:0F09ED00010AEB64064A70F50DBD00010C80E4B1
:0109FC0022D8
:10080000E4F514F515F512F513F508F509F510F5ED
:1008100011F50EF50FF50CF50DF50AF50B0509E5CB
:10082000097002050864824508700CF508F5090591
:100830000BE50B7002050A75A0FFD295C293C29416
:10084000C290C292C291E50B1209D0E50B640A4531
:100850000A700CF50AF50B050DE50D7002050C7517
:10086000A0FFD294C292C295C293C291C290E50DEC
:100870001209D0E50D6406450C700CF50CF50D055C
:100880000FE50F7002050E75A0FFD293C294C295BA
:10089000C291C290C292E50F1209D0E50F640A45D9
:1008A0000E700CF50EF50F0511E5117002051075AF
:1008B000A0FFD292C294C295C293C290C291E51198
:1008C0001209D0E51164064510700CF510F51105FC
:1008D00013E5137002051275A0FFD291C290C29564
:1008E000C293C292C294E5131209D0E513640A457B
:1008F00012700CF512F5130515E515700205147547
:10090000A0FFD290C294C295C293C292C291E51543
:100910001209D0E515640145147020E51364024501
:10092000127018F50AF50BF50CF50DF50EF50FF52F
:1009300010F511F512F513F514F5151209D975A076
:04094000FF02081D8D
:10095000020800E493A3F8E493A34003F68001F2B5
:1009600008DFF48029E493A3F85407240CC8C333A8
:10097000C4540F4420C8834004F456800146F6DF77
:10098000E4800B01020408102040809009FDE47E01
:10099000019360BCA3FF543F30E509541FFEE4936C
:1009A000A360010ECF54C025E060A840B8E493A333
:1009B000FAE493A3F8E493A3C8C582C8CAC583CA5E
:1009C000F0A3C8C582C8CAC583CADFE9DEE780BE16
:010A130000E2
:00000001FF
